:020000040800F2
:1000000000500020DD0000083D0100083D0100080F
:1000100080B483B000AF78607B68002B06D10A4BB8
:100020001B68094A43F40053136008E07B68012B06
:1000300005D1054B1B68044A43F00053136000BF11
:100040000C37BD4680BC70471010014080B400AF33
:100050000A4B1B68094A43F010031360084B1B68E6
:10006000074A23F470031360054B1B68044A43F4EA
:100070000013136000BFBD4680BC704718100240DB
:100080000410014080B483B000AF786000E000BF8E
:100090007B685A1E7A60002BF9D100BF00BF0C3775
:1000A000BD4680BC704780B582B000AFFFF7CEFF81
:1000B00000237B607868FFF7ABFF01237B60064875
:1000C000FFF7E0FF7868FFF7A3FF00237B6002489B
:1000D000FFF7D8FF00BFEDE720A1070080B584B08F
:1000E00000AF114BFB60114BBB6007E0FA68131DBA
:1000F000FB60BB68191DB96012681A60BB680C4AC6
:100100009342F3D30B4B7B6005E07B6800221A60BF
:100110007B6804337B607B68074A9342F5D3FFF723
:10012000C2FF00BFFDE700BF44010008000000203F
:1001300000000020000000200000002080B400AF7C
:0401400000BFFDE718
:04000005080000DD12
:00000001FF
